{
  "_format": "hh-sol-artifact-1",
  "contractName": "Voting",
  "sourceName": "contracts/Voting.sol",
  "abi": [
    {
      "inputs": [
        {
          "internalType": "string[]",
          "name": "_candidateNames",
          "type": "string[]"
        },
        {
          "internalType": "uint256",
          "name": "_durationInMinutes",
          "type": "uint256"
        }
      ],
      "stateMutability": "nonpayable",
      "type": "constructor"
    },
    {
      "inputs": [
        {
          "internalType": "string",
          "name": "_name",
          "type": "string"
        }
      ],
      "name": "addCandidate",
      "outputs": [],
      "stateMutability": "nonpayable",
      "type": "function"
    },
    {
      "inputs": [],
      "name": "candidateCount",
      "outputs": [
        {
          "internalType": "uint256",
          "name": "",
          "type": "uint256"
        }
      ],
      "stateMutability": "view",
      "type": "function"
    },
    {
      "inputs": [
        {
          "internalType": "uint256",
          "name": "",
          "type": "uint256"
        }
      ],
      "name": "candidates",
      "outputs": [
        {
          "internalType": "string",
          "name": "name",
          "type": "string"
        },
        {
          "internalType": "uint256",
          "name": "voteCount",
          "type": "uint256"
        }
      ],
      "stateMutability": "view",
      "type": "function"
    },
    {
      "inputs": [
        {
          "internalType": "uint256",
          "name": "newCandidateIndex",
          "type": "uint256"
        }
      ],
      "name": "changeVote",
      "outputs": [],
      "stateMutability": "nonpayable",
      "type": "function"
    },
    {
      "inputs": [],
      "name": "closeVotingEarly",
      "outputs": [],
      "stateMutability": "nonpayable",
      "type": "function"
    },
    {
      "inputs": [
        {
          "internalType": "address",
          "name": "",
          "type": "address"
        }
      ],
      "name": "currentVote",
      "outputs": [
        {
          "internalType": "uint256",
          "name": "",
          "type": "uint256"
        }
      ],
      "stateMutability": "view",
      "type": "function"
    },
    {
      "inputs": [
        {
          "internalType": "uint256",
          "name": "additionalMinutes",
          "type": "uint256"
        }
      ],
      "name": "extendVotingTime",
      "outputs": [],
      "stateMutability": "nonpayable",
      "type": "function"
    },
    {
      "inputs": [],
      "name": "getAllVotesOfCandidates",
      "outputs": [
        {
          "components": [
            {
              "internalType": "string",
              "name": "name",
              "type": "string"
            },
            {
              "internalType": "uint256",
              "name": "voteCount",
              "type": "uint256"
            }
          ],
          "internalType": "struct Voting.Candidate[]",
          "name": "",
          "type": "tuple[]"
        }
      ],
      "stateMutability": "view",
      "type": "function"
    },
    {
      "inputs": [
        {
          "internalType": "uint256",
          "name": "index",
          "type": "uint256"
        }
      ],
      "name": "getCandidate",
      "outputs": [
        {
          "internalType": "string",
          "name": "",
          "type": "string"
        },
        {
          "internalType": "uint256",
          "name": "",
          "type": "uint256"
        }
      ],
      "stateMutability": "view",
      "type": "function"
    },
    {
      "inputs": [],
      "name": "getRemainingTime",
      "outputs": [
        {
          "internalType": "uint256",
          "name": "",
          "type": "uint256"
        }
      ],
      "stateMutability": "view",
      "type": "function"
    },
    {
      "inputs": [],
      "name": "getVotingStatus",
      "outputs": [
        {
          "internalType": "bool",
          "name": "",
          "type": "bool"
        }
      ],
      "stateMutability": "view",
      "type": "function"
    },
    {
      "inputs": [],
      "name": "owner",
      "outputs": [
        {
          "internalType": "address",
          "name": "",
          "type": "address"
        }
      ],
      "stateMutability": "view",
      "type": "function"
    },
    {
      "inputs": [],
      "name": "resetAllVotes",
      "outputs": [],
      "stateMutability": "nonpayable",
      "type": "function"
    },
    {
      "inputs": [
        {
          "internalType": "address",
          "name": "_voter",
          "type": "address"
        }
      ],
      "name": "resetVoter",
      "outputs": [],
      "stateMutability": "nonpayable",
      "type": "function"
    },
    {
      "inputs": [],
      "name": "toggleVotingPause",
      "outputs": [],
      "stateMutability": "nonpayable",
      "type": "function"
    },
    {
      "inputs": [
        {
          "internalType": "address",
          "name": "newOwner",
          "type": "address"
        }
      ],
      "name": "transferOwnership",
      "outputs": [],
      "stateMutability": "nonpayable",
      "type": "function"
    },
    {
      "inputs": [
        {
          "internalType": "uint256",
          "name": "_candidateIndex",
          "type": "uint256"
        }
      ],
      "name": "vote",
      "outputs": [],
      "stateMutability": "nonpayable",
      "type": "function"
    },
    {
      "inputs": [
        {
          "internalType": "address",
          "name": "",
          "type": "address"
        }
      ],
      "name": "voters",
      "outputs": [
        {
          "internalType": "bool",
          "name": "",
          "type": "bool"
        }
      ],
      "stateMutability": "view",
      "type": "function"
    },
    {
      "inputs": [],
      "name": "votingEnd",
      "outputs": [
        {
          "internalType": "uint256",
          "name": "",
          "type": "uint256"
        }
      ],
      "stateMutability": "view",
      "type": "function"
    },
    {
      "inputs": [],
      "name": "votingPaused",
      "outputs": [
        {
          "internalType": "bool",
          "name": "",
          "type": "bool"
        }
      ],
      "stateMutability": "view",
      "type": "function"
    },
    {
      "inputs": [],
      "name": "votingStart",
      "outputs": [
        {
          "internalType": "uint256",
          "name": "",
          "type": "uint256"
        }
      ],
      "stateMutability": "view",
      "type": "function"
    }
  ],
  "bytecode": "0x60806040523480156200001157600080fd5b5060405162002ad438038062002ad4833981810160405281019062000037919062000544565b60008251116200007e576040517f08c379a000000000000000000000000000000000000000000000000000000000815260040162000075906200060b565b60405180910390fd5b60005b82518110156200012a5760006040518060400160405280858481518110620000ae57620000ad6200062d565b5b6020026020010151815260200160008152509080600181540180825580915050600190039060005260206000209060020201600090919091909150600082015181600001908051906020019062000107929190620001c0565b50602082015181600101555050808062000121906200068b565b91505062000081565b5033600160006101000a81548173ffffffffffffffffffffffffffffffffffffffff021916908373ffffffffffffffffffffffffffffffffffffffff16021790555042600581905550603c81620001829190620006d9565b426200018f91906200073a565b6006819055506000600460006101000a81548160ff02191690831515021790555081516007819055505050620007fc565b828054620001ce90620007c6565b90600052602060002090601f016020900481019282620001f257600085556200023e565b82601f106200020d57805160ff19168380011785556200023e565b828001600101855582156200023e579182015b828111156200023d57825182559160200191906001019062000220565b5b5090506200024d919062000251565b5090565b5b808211156200026c57600081600090555060010162000252565b5090565b6000604051905090565b600080fd5b600080fd5b600080fd5b6000601f19601f8301169050919050565b7f4e487b7100000000000000000000000000000000000000000000000000000000600052604160045260246000fd5b620002d48262000289565b810181811067ffffffffffffffff82111715620002f657620002f56200029a565b5b80604052505050565b60006200030b62000270565b9050620003198282620002c9565b919050565b600067ffffffffffffffff8211156200033c576200033b6200029a565b5b602082029050602081019050919050565b600080fd5b600080fd5b600067ffffffffffffffff8211156200037557620003746200029a565b5b620003808262000289565b9050602081019050919050565b60005b83811015620003ad57808201518184015260208101905062000390565b83811115620003bd576000848401525b50505050565b6000620003da620003d48462000357565b620002ff565b905082815260208101848484011115620003f957620003f862000352565b5b620004068482856200038d565b509392505050565b600082601f83011262000426576200042562000284565b5b815162000438848260208601620003c3565b91505092915050565b60006200045862000452846200031e565b620002ff565b905080838252602082019050602084028301858111156200047e576200047d6200034d565b5b835b81811015620004cc57805167ffffffffffffffff811115620004a757620004a662000284565b5b808601620004b689826200040e565b8552602085019450505060208101905062000480565b5050509392505050565b600082601f830112620004ee57620004ed62000284565b5b81516200050084826020860162000441565b91505092915050565b6000819050919050565b6200051e8162000509565b81146200052a57600080fd5b50565b6000815190506200053e8162000513565b92915050565b600080604083850312156200055e576200055d6200027a565b5b600083015167ffffffffffffffff8111156200057f576200057e6200027f565b5b6200058d85828601620004d6565b9250506020620005a0858286016200052d565b9150509250929050565b600082825260208201905092915050565b7f4174206c65617374206f6e652063616e64696461746520726571756972656400600082015250565b6000620005f3601f83620005aa565b91506200060082620005bb565b602082019050919050565b600060208201905081810360008301526200062681620005e4565b9050919050565b7f4e487b7100000000000000000000000000000000000000000000000000000000600052603260045260246000fd5b7f4e487b7100000000000000000000000000000000000000000000000000000000600052601160045260246000fd5b6000620006988262000509565b91507fffffffffffffffffffffffffffffffffffffffffffffffffffffffffffffffff821415620006ce57620006cd6200065c565b5b600182019050919050565b6000620006e68262000509565b9150620006f38362000509565b9250817fffffffffffffffffffffffffffffffffffffffffffffffffffffffffffffffff04831182151516156200072f576200072e6200065c565b5b828202905092915050565b6000620007478262000509565b9150620007548362000509565b9250827fffffffffffffffffffffffffffffffffffffffffffffffffffffffffffffffff038211156200078c576200078b6200065c565b5b828201905092915050565b7f4e487b7100000000000000000000000000000000000000000000000000000000600052602260045260246000fd5b60006002820490506001821680620007df57607f821691505b60208210811415620007f657620007f562000797565b5b50919050565b6122c8806200080c6000396000f3fe608060405234801561001057600080fd5b50600436106101375760003560e01c80639d7ab6e2116100b8578063ba05269b1161007c578063ba05269b14610308578063c9f51e5a14610324578063d4d0e93114610340578063efb98bcf1461034a578063f22d682014610368578063f2fde38b1461039857610137565b80639d7ab6e2146102765780639f6148e014610292578063a3ec138d1461029c578063a9a981a3146102cc578063ae66c9ea146102ea57610137565b8063462e91ec116100ff578063462e91ec146101e2578063581c281c146101fe57806385a386351461021c5780638da5cb5b1461023a57806390a9ab901461025857610137565b80630121b93f1461013c578063101158af14610158578063340a225c146101765780633477ee2e1461018057806335b8e820146101b1575b600080fd5b610156600480360381019061015191906115f7565b6103b4565b005b61016061063b565b60405161016d9190611633565b60405180910390f35b61017e610641565b005b61019a600480360381019061019591906115f7565b6106fd565b6040516101a89291906116e7565b60405180910390f35b6101cb60048036038101906101c691906115f7565b6107b9565b6040516101d99291906116e7565b60405180910390f35b6101fc60048036038101906101f7919061184c565b6108e1565b005b610206610a3a565b60405161021391906118b0565b60405180910390f35b610224610a6d565b6040516102319190611633565b60405180910390f35b610242610a73565b60405161024f919061190c565b60405180910390f35b610260610a99565b60405161026d9190611a7f565b60405180910390f35b610290600480360381019061028b91906115f7565b610c04565b005b61029a610d00565b005b6102b660048036038101906102b19190611acd565b610ddd565b6040516102c391906118b0565b60405180910390f35b6102d4610dfd565b6040516102e19190611633565b60405180910390f35b6102f2610e03565b6040516102ff91906118b0565b60405180910390f35b610322600480360381019061031d9190611acd565b610e16565b005b61033e600480360381019061033991906115f7565b610f46565b005b610348611270565b005b61035261134d565b60405161035f9190611633565b60405180910390f35b610382600480360381019061037d9190611acd565b611394565b60405161038f9190611633565b60405180910390f35b6103b260048036038101906103ad9190611acd565b6113ac565b005b600460009054906101000a900460ff1615610404576040517f08c379a00000000000000000000000000000000000000000000000000000000081526004016103fb90611b46565b60405180910390fd5b600554421015610449576040517f08c379a000000000000000000000000000000000000000000000000000000000815260040161044090611bb2565b60405180910390fd5b600654421061048d576040517f08c379a000000000000000000000000000000000000000000000000000000000815260040161048490611c1e565b60405180910390fd5b600260003373ffffffffffffffffffffffffffffffffffffffff1673ffffffffffffffffffffffffffffffffffffffff16815260200190815260200160002060009054906101000a900460ff161561051a576040517f08c379a000000000000000000000000000000000000000000000000000000000815260040161051190611cb0565b60405180910390fd5b6000805490508110610561576040517f08c379a000000000000000000000000000000000000000000000000000000000815260040161055890611d1c565b60405180910390fd5b6000818154811061057557610574611d3c565b5b9060005260206000209060020201600101600081548092919061059790611d9a565b91905055506001600260003373ffffffffffffffffffffffffffffffffffffffff1673ffffffffffffffffffffffffffffffffffffffff16815260200190815260200160002060006101000a81548160ff02191690831515021790555080600360003373ffffffffffffffffffffffffffffffffffffffff1673ffffffffffffffffffffffffffffffffffffffff1681526020019081526020016000208190555050565b60055481565b600160009054906101000a900473ffffffffffffffffffffffffffffffffffffffff1673ffffffffffffffffffffffffffffffffffffffff163373ffffffffffffffffffffffffffffffffffffffff16146106d1576040517f08c379a00000000000000000000000000000000000000000000000000000000081526004016106c890611e55565b60405180910390fd5b600460009054906101000a900460ff1615600460006101000a81548160ff021916908315150217905550565b6000818154811061070d57600080fd5b906000526020600020906002020160009150905080600001805461073090611ea4565b80601f016020809104026020016040519081016040528092919081815260200182805461075c90611ea4565b80156107a95780601f1061077e576101008083540402835291602001916107a9565b820191906000526020600020905b81548152906001019060200180831161078c57829003601f168201915b5050505050908060010154905082565b606060006007548310610801576040517f08c379a00000000000000000000000000000000000000000000000000000000081526004016107f890611f22565b60405180910390fd5b6000838154811061081557610814611d3c565b5b90600052602060002090600202016000016000848154811061083a57610839611d3c565b5b90600052602060002090600202016001015481805461085890611ea4565b80601f016020809104026020016040519081016040528092919081815260200182805461088490611ea4565b80156108d15780601f106108a6576101008083540402835291602001916108d1565b820191906000526020600020905b8154815290600101906020018083116108b457829003601f168201915b5050505050915091509150915091565b600160009054906101000a900473ffffffffffffffffffffffffffffffffffffffff1673ffffffffffffffffffffffffffffffffffffffff163373ffffffffffffffffffffffffffffffffffffffff1614610971576040517f08c379a000000000000000000000000000000000000000000000000000000000815260040161096890611e55565b60405180910390fd5b60008151116109b5576040517f08c379a00000000000000000000000000000000000000000000000000000000081526004016109ac90611f8e565b60405180910390fd5b60006040518060400160405280838152602001600081525090806001815401808255809150506001900390600052602060002090600202016000909190919091506000820151816000019080519060200190610a129291906114f0565b5060208201518160010155505060076000815480929190610a3290611d9a565b919050555050565b6000600460009054906101000a900460ff16158015610a5b57506005544210155b8015610a68575060065442105b905090565b60065481565b600160009054906101000a900473ffffffffffffffffffffffffffffffffffffffff1681565b6060600060075467ffffffffffffffff811115610ab957610ab8611721565b5b604051908082528060200260200182016040528015610af257816020015b610adf611576565b815260200190600190039081610ad75790505b50905060005b600754811015610bfc5760008181548110610b1657610b15611d3c565b5b9060005260206000209060020201604051806040016040529081600082018054610b3f90611ea4565b80601f0160208091040260200160405190810160405280929190818152602001828054610b6b90611ea4565b8015610bb85780601f10610b8d57610100808354040283529160200191610bb8565b820191906000526020600020905b815481529060010190602001808311610b9b57829003601f168201915b50505050508152602001600182015481525050828281518110610bde57610bdd611d3c565b5b60200260200101819052508080610bf490611d9a565b915050610af8565b508091505090565b600160009054906101000a900473ffffffffffffffffffffffffffffffffffffffff1673ffffffffffffffffffffffffffffffffffffffff163373ffffffffffffffffffffffffffffffffffffffff1614610c94576040517f08c379a0000000000000000000000000000000000000000000000000000000008152600401610c8b90611e55565b60405180910390fd5b6006544210610cd8576040517f08c379a0000000000000000000000000000000000000000000000000000000008152600401610ccf90611ffa565b60405180910390fd5b603c81610ce5919061201a565b60066000828254610cf69190612074565b9250508190555050565b600160009054906101000a900473ffffffffffffffffffffffffffffffffffffffff1673ffffffffffffffffffffffffffffffffffffffff163373ffffffffffffffffffffffffffffffffffffffff1614610d90576040517f08c379a0000000000000000000000000000000000000000000000000000000008152600401610d8790611e55565b60405180910390fd5b6006544210610dd4576040517f08c379a0000000000000000000000000000000000000000000000000000000008152600401610dcb90611ffa565b60405180910390fd5b42600681905550565b60026020528060005260406000206000915054906101000a900460ff1681565b60075481565b600460009054906101000a900460ff1681565b600160009054906101000a900473ffffffffffffffffffffffffffffffffffffffff1673ffffffffffffffffffffffffffffffffffffffff163373ffffffffffffffffffffffffffffffffffffffff1614610ea6576040517f08c379a0000000000000000000000000000000000000000000000000000000008152600401610e9d90611e55565b60405180910390fd5b6000600260008373ffffffffffffffffffffffffffffffffffffffff1673ffffffffffffffffffffffffffffffffffffffff16815260200190815260200160002060006101000a81548160ff0219169083151502179055506000600360008373ffffffffffffffffffffffffffffffffffffffff1673ffffffffffffffffffffffffffffffffffffffff1681526020019081526020016000208190555050565b600460009054906101000a900460ff1615610f96576040517f08c379a0000000000000000000000000000000000000000000000000000000008152600401610f8d90611b46565b60405180910390fd5b600554421015610fdb576040517f08c379a0000000000000000000000000000000000000000000000000000000008152600401610fd290611bb2565b60405180910390fd5b600654421061101f576040517f08c379a000000000000000000000000000000000000000000000000000000000815260040161101690611c1e565b60405180910390fd5b600260003373ffffffffffffffffffffffffffffffffffffffff1673ffffffffffffffffffffffffffffffffffffffff16815260200190815260200160002060009054906101000a900460ff166110ab576040517f08c379a00000000000000000000000000000000000000000000000000000000081526004016110a290612116565b60405180910390fd5b60008054905081106110f2576040517f08c379a00000000000000000000000000000000000000000000000000000000081526004016110e990611d1c565b60405180910390fd5b80600360003373ffffffffffffffffffffffffffffffffffffffff1673ffffffffffffffffffffffffffffffffffffffff168152602001908152602001600020541415611174576040517f08c379a000000000000000000000000000000000000000000000000000000000815260040161116b906121a8565b60405180910390fd5b6000600360003373ffffffffffffffffffffffffffffffffffffffff1673ffffffffffffffffffffffffffffffffffffffff16815260200190815260200160002054815481106111c7576111c6611d3c565b5b906000526020600020906002020160010160008154809291906111e9906121c8565b91905055506000818154811061120257611201611d3c565b5b9060005260206000209060020201600101600081548092919061122490611d9a565b919050555080600360003373ffffffffffffffffffffffffffffffffffffffff1673ffffffffffffffffffffffffffffffffffffffff1681526020019081526020016000208190555050565b600160009054906101000a900473ffffffffffffffffffffffffffffffffffffffff1673ffffffffffffffffffffffffffffffffffffffff163373ffffffffffffffffffffffffffffffffffffffff1614611300576040517f08c379a00000000000000000000000000000000000000000000000000000000081526004016112f790611e55565b60405180910390fd5b60005b60075481101561134a57600080828154811061132257611321611d3c565b5b906000526020600020906002020160010181905550808061134290611d9a565b915050611303565b50565b600060055442101561136e574260055461136791906121f2565b9050611391565b60065442106113805760009050611391565b4260065461138e91906121f2565b90505b90565b60036020528060005260406000206000915090505481565b600160009054906101000a900473ffffffffffffffffffffffffffffffffffffffff1673ffffffffffffffffffffffffffffffffffffffff163373ffffffffffffffffffffffffffffffffffffffff161461143c576040517f08c379a000000000000000000000000000000000000000000000000000000000815260040161143390611e55565b60405180910390fd5b600073ffffffffffffffffffffffffffffffffffffffff168173ffffffffffffffffffffffffffffffffffffffff1614156114ac576040517f08c379a00000000000000000000000000000000000000000000000000000000081526004016114a390612272565b60405180910390fd5b80600160006101000a81548173ffffffffffffffffffffffffffffffffffffffff021916908373ffffffffffffffffffffffffffffffffffffffff16021790555050565b8280546114fc90611ea4565b90600052602060002090601f01602090048101928261151e5760008555611565565b82601f1061153757805160ff1916838001178555611565565b82800160010185558215611565579182015b82811115611564578251825591602001919060010190611549565b5b5090506115729190611590565b5090565b604051806040016040528060608152602001600081525090565b5b808211156115a9576000816000905550600101611591565b5090565b6000604051905090565b600080fd5b600080fd5b6000819050919050565b6115d4816115c1565b81146115df57600080fd5b50565b6000813590506115f1816115cb565b92915050565b60006020828403121561160d5761160c6115b7565b5b600061161b848285016115e2565b91505092915050565b61162d816115c1565b82525050565b60006020820190506116486000830184611624565b92915050565b600081519050919050565b600082825260208201905092915050565b60005b8381101561168857808201518184015260208101905061166d565b83811115611697576000848401525b50505050565b6000601f19601f8301169050919050565b60006116b98261164e565b6116c38185611659565b93506116d381856020860161166a565b6116dc8161169d565b840191505092915050565b6000604082019050818103600083015261170181856116ae565b90506117106020830184611624565b9392505050565b600080fd5b600080fd5b7f4e487b7100000000000000000000000000000000000000000000000000000000600052604160045260246000fd5b6117598261169d565b810181811067ffffffffffffffff8211171561177857611777611721565b5b80604052505050565b600061178b6115ad565b90506117978282611750565b919050565b600067ffffffffffffffff8211156117b7576117b6611721565b5b6117c08261169d565b9050602081019050919050565b82818337600083830152505050565b60006117ef6117ea8461179c565b611781565b90508281526020810184848401111561180b5761180a61171c565b5b6118168482856117cd565b509392505050565b600082601f83011261183357611832611717565b5b81356118438482602086016117dc565b91505092915050565b600060208284031215611862576118616115b7565b5b600082013567ffffffffffffffff8111156118805761187f6115bc565b5b61188c8482850161181e565b91505092915050565b60008115159050919050565b6118aa81611895565b82525050565b60006020820190506118c560008301846118a1565b92915050565b600073ffffffffffffffffffffffffffffffffffffffff82169050919050565b60006118f6826118cb565b9050919050565b611906816118eb565b82525050565b600060208201905061192160008301846118fd565b92915050565b600081519050919050565b600082825260208201905092915050565b6000819050602082019050919050565b600082825260208201905092915050565b600061196f8261164e565b6119798185611953565b935061198981856020860161166a565b6119928161169d565b840191505092915050565b6119a6816115c1565b82525050565b600060408301600083015184820360008601526119c98282611964565b91505060208301516119de602086018261199d565b508091505092915050565b60006119f583836119ac565b905092915050565b6000602082019050919050565b6000611a1582611927565b611a1f8185611932565b935083602082028501611a3185611943565b8060005b85811015611a6d5784840389528151611a4e85826119e9565b9450611a59836119fd565b925060208a01995050600181019050611a35565b50829750879550505050505092915050565b60006020820190508181036000830152611a998184611a0a565b905092915050565b611aaa816118eb565b8114611ab557600080fd5b50565b600081359050611ac781611aa1565b92915050565b600060208284031215611ae357611ae26115b7565b5b6000611af184828501611ab8565b91505092915050565b7f566f74696e672069732063757272656e746c7920706175736564000000000000600082015250565b6000611b30601a83611659565b9150611b3b82611afa565b602082019050919050565b60006020820190508181036000830152611b5f81611b23565b9050919050565b7f566f74696e6720686173206e6f74207374617274656420796574000000000000600082015250565b6000611b9c601a83611659565b9150611ba782611b66565b602082019050919050565b60006020820190508181036000830152611bcb81611b8f565b9050919050565b7f566f74696e672068617320656e64656400000000000000000000000000000000600082015250565b6000611c08601083611659565b9150611c1382611bd2565b602082019050919050565b60006020820190508181036000830152611c3781611bfb565b9050919050565b7f596f75206861766520616c726561647920766f7465642028757365206368616e60008201527f6765566f746520696e7374656164290000000000000000000000000000000000602082015250565b6000611c9a602f83611659565b9150611ca582611c3e565b604082019050919050565b60006020820190508181036000830152611cc981611c8d565b9050919050565b7f496e76616c69642063616e646964617465000000000000000000000000000000600082015250565b6000611d06601183611659565b9150611d1182611cd0565b602082019050919050565b60006020820190508181036000830152611d3581611cf9565b9050919050565b7f4e487b7100000000000000000000000000000000000000000000000000000000600052603260045260246000fd5b7f4e487b7100000000000000000000000000000000000000000000000000000000600052601160045260246000fd5b6000611da5826115c1565b91507fffffffffffffffffffffffffffffffffffffffffffffffffffffffffffffffff821415611dd857611dd7611d6b565b5b600182019050919050565b7f4f6e6c79206f776e65722063616e20706572666f726d2074686973206163746960008201527f6f6e000000000000000000000000000000000000000000000000000000000000602082015250565b6000611e3f602283611659565b9150611e4a82611de3565b604082019050919050565b60006020820190508181036000830152611e6e81611e32565b9050919050565b7f4e487b7100000000000000000000000000000000000000000000000000000000600052602260045260246000fd5b60006002820490506001821680611ebc57607f821691505b60208210811415611ed057611ecf611e75565b5b50919050565b7f496e76616c696420696e64657800000000000000000000000000000000000000600082015250565b6000611f0c600d83611659565b9150611f1782611ed6565b602082019050919050565b60006020820190508181036000830152611f3b81611eff565b9050919050565b7f43616e646964617465206e616d652063616e6e6f7420626520656d7074790000600082015250565b6000611f78601e83611659565b9150611f8382611f42565b602082019050919050565b60006020820190508181036000830152611fa781611f6b565b9050919050565b7f566f74696e672068617320616c726561647920656e6465640000000000000000600082015250565b6000611fe4601883611659565b9150611fef82611fae565b602082019050919050565b6000602082019050818103600083015261201381611fd7565b9050919050565b6000612025826115c1565b9150612030836115c1565b9250817fffffffffffffffffffffffffffffffffffffffffffffffffffffffffffffffff048311821515161561206957612068611d6b565b5b828202905092915050565b600061207f826115c1565b915061208a836115c1565b9250827fffffffffffffffffffffffffffffffffffffffffffffffffffffffffffffffff038211156120bf576120be611d6b565b5b828201905092915050565b7f596f7520686176656e277420766f746564207965740000000000000000000000600082015250565b6000612100601583611659565b915061210b826120ca565b602082019050919050565b6000602082019050818103600083015261212f816120f3565b9050919050565b7f5468697320697320616c726561647920796f75722063757272656e7420766f7460008201527f6500000000000000000000000000000000000000000000000000000000000000602082015250565b6000612192602183611659565b915061219d82612136565b604082019050919050565b600060208201905081810360008301526121c181612185565b9050919050565b60006121d3826115c1565b915060008214156121e7576121e6611d6b565b5b600182039050919050565b60006121fd826115c1565b9150612208836115c1565b92508282101561221b5761221a611d6b565b5b828203905092915050565b7f496e76616c696420616464726573730000000000000000000000000000000000600082015250565b600061225c600f83611659565b915061226782612226565b602082019050919050565b6000602082019050818103600083015261228b8161224f565b905091905056fea26469706673582212202270cc1d4717187da1124ac958c065eb246bfbd74dda05a87f66f47b44b4f3fb64736f6c634300080b0033",
  "linkReferences": {},
  "deployedLinkReferences": {}
}